:100000000C9434000C9451000C9451000C94510049
:100010000C9451000C9451000C9451000C9451001C
:100020000C9451000C9451000C9451000C9451000C
:100030000C9451000C9451000C9451000C945100FC
:100040000C9406040C9451000C9451000C94510033
:100050000C9451000C9451000C9451000C945100DC
:100060000C9451000C94510011241FBECFEFD8E026
:10007000DEBFCDBF12E0A0E0B1E0E2E9F1E102C0F5
:1000800005900D92AA31B107D9F726E0AAE1B2E0B6
:1000900001C01D92A332B207E1F70E943F080C9401
:1000A000C7080C940000C1E00E940802019751F4B7
:1000B000C0939E0224E630E040E060E080E00E94D1
:1000C000D407F2CF10929E02F5CF60919A02709100
:1000D0009B0280919C0290919D020E94AD012AEFAB
:1000E00030E040E060E080E00E94D407EECF02E321
:1000F00010E0C2EEDFEF8EE1E82EF12C80919E023F
:100100008130E1F4D0939B02C0939A02D0939D0278
:10011000C0939C020E941402CD9744F0D0939B029E
:10012000C0939A02F0929D02E0929C0224EF31E08B
:1001300040E060E080E00E94D407E0CF10939B0293
:1001400000939A0210939D0200939C02E3CF0E94B9
:100150002B020E94E8012AEF30E040E060E080E0FE
:100160000E94D407F4CF0E947B0222E049E952E0CA
:1001700070E060E083E590E00E94830623E04EE1BA
:1001800053E070E060E085E690E00E94830624E0A2
:100190004EE954E070E060E087E790E00E9483065B
:1001A00025E04EE154E070E060E087EA90E00E94D4
:1001B0008306C1E030E020E045E060E080E00E949E
:1001C000D40785B18C2785B9F5CF80E480937C0076
:1001D00086E880937A000895F894806480937C0088
:1001E00080917A00806480937A0080917A0084FF05
:1001F000FCCF80917A00806180937A00789480911E
:1002000078009091790093700895811105C07093E2
:10021000890060938800089570938B0060938A0032
:1002200008958AB1806F8AB98BB18F708BB981EADA
:100230008093800083E0809381001092850010926B
:10024000840010928900A8E8B0E01C9210928B0004
:10025000EAE8F0E0108284B1866084B911961C92BD
:100260001E9211821082089577FF02C070E060E054
:100270006536710514F064E670E09B01220F331FB0
:1002800075956795620F731F811109C070938B007C
:1002900060938A007093A00460939F040895709304
:1002A0008900609388007093A4046093A304089568
:1002B000CF93C62F262F30E081112BC08091A1044F
:1002C0009091A2048217930759F070E060E080E0FB
:1002D0000E9434018FE99FE00197F1F700C0000010
:1002E000C1110EC05E985F9A1092A2041092A104F0
:1002F0008FE39CE90197F1F700C00000CF910895CA
:100300005E9A5F9881E090E09093A2048093A104AC
:10031000EFCF8091A5049091A6048217930759F01E
:1003200070E060E081E00E9434018FE99FE0019776
:10033000F1F700C00000C11107C05C9A5D981092EF
:10034000A6041092A504D4CF5C985D9A81E090E059
:100350009093A6048093A504CBCF0F931F93CF93C4
:10036000DF93EC018B0197FF1CC061E081E00E94EC
:100370005801D195C195D10917FF18C061E080E0FF
:100380000E945801119501951109B80180E00E9461
:100390003401BE0181E0DF91CF911F910F910C9448
:1003A000340160E081E00E945801E6CF60E080E027
:1003B0000E945801EACF8093C4001092C5001092A9
:1003C000C00088E18093C10086E08093C200089558
:1003D0009091C00095FFFCCF8093C6000895CF9305
:1003E0008091C00087FFFCCFC091C6008C2F0E9477
:1003F000E8018C2FCF910895CF93DF93EC01899181
:10040000811103C0DF91CF9108950E94E801F7CFD9
:1004100080E00E94EC0021E030E08436910510F08D
:1004200030E020E0C901089584E00E94EC002BEF49
:10043000AC012403C001259F900D112485509C4ED2
:1004400063E370E00E947708CB016536710514F014
:1004500084E690E00895CF93DF93C0E0D1E0CC0F25
:100460008D2F0E94EC008C3291400CF4C160DF5F54
:10047000D430A9F78C2F90E0DF91CF91089583B10C
:1004800082958F7091E08927817090E0089583B103
:1004900086958695869591E08927817090E00895EC
:1004A0005B9A2FEF85EA9EE0215080409040E1F773
:1004B00000C000005B982FEF85EA9EE0215080404D
:1004C0009040E1F700C00000089585E00E94EC0034
:1004D000843F914010F4289A08952898089589B18E
:1004E00082FB882780F991E0892708950E946F0296
:1004F0008823E1F30895F89485E085BD81E0809339
:100500006E0084E686BD7894089587E60E94DB013C
:100510000C94E5000E9485020E941101539A5B9899
:10052000209A52985A9A2498239885B1886185B95F
:1005300060E080E00E94580160E081E00E94580184
:1005400070E060E090E080E00C94AD014F925F922B
:100550006F927F928F929F92AF92BF92CF92DF92D3
:10056000EF92FF920F931F93CF93DF93CDB7DEB738
:10057000DE015396ED91FD918D015AE0652E712CAF
:100580008081853281F45F0182E0A80EB11C8181F7
:10059000843609F450C090F4833661F4F801808108
:1005A0000E5F1F4F07C0882309F45DC05F019FEFF6
:1005B000A91AB90A0E94E801F501E2CF833771F167
:1005C00030E1832E912CE12C40E1F42E883791F715
:1005D000F801C080D1800E5F1F4F843659F4D7FEDA
:1005E00006C0D194C194D1088DE20E94E801CE14D6
:1005F000DF0448F1C601B7010E9463082C01685F5F
:100600007D4FFB0180810E94E8016201C701B401B6
:100610000E9463087B01672B69F7CECFF801E08069
:10062000F1800E5F1F4FF70181917F01882321F236
:100630000E94E801F8CF9AE0892E912C20E1E22E69
:1006400027E2F22EC5CFC701B3010E9463087B01E8
:100650006230710560F6C6010E946308FB01E85F25
:10066000FD4F8081A7CF90E080E0DF91CF911F9177
:100670000F91FF90EF90DF90CF90BF90AF909F9041
:100680008F907F906F905F904F9008950091A80495
:1006900003950093A804E091B804F091B904C191C6
:1006A000CDBFD191DEBF0F910FBFFF91EF91DF91D1
:1006B000CF91BF91AF919F918F917F916F915F91FA
:1006C0004F913F912F911F910F91FF90EF90DF90ED
:1006D000CF90BF90AF909F908F907F906F905F90E2
:1006E0004F903F902F901F900F9008950F921F9260
:1006F0002F923F924F925F926F927F928F929F9232
:10070000AF92BF92CF92DF92EF92FF920F931F931F
:100710002F933F934F935F936F937F938F939F9309
:10072000AF93BF93CF93DF93EF93FF930FB70F93E5
:10073000E091C004F091C104CDB7C193DEB7D1936D
:100740000091AD040093AE04E091B804F091B904B7
:10075000E093C004F093C104C191CDBFD191DEBF3D
:100760000F910FBFFF91EF91DF91CF91BF91AF91AB
:100770009F918F917F916F915F914F913F912F91B9
:100780001F910F91FF90EF90DF90CF90BF90AF90AF
:100790009F908F907F906F905F904F903F902F90A1
:1007A0001F900F9008950091AD040093AE04E09166
:1007B000B804F091B904E093C004F093C104C1916E
:1007C000CDBFD191DEBF0F910FBFFF91EF91DF91B0
:1007D000CF91BF91AF919F918F917F916F915F91D9
:1007E0004F913F912F911F910F91FF90EF90DF90CC
:1007F000CF90BF90AF909F908F907F906F905F90C1
:100800004F903F902F901F900F9008950F921F923E
:100810002F923F924F925F926F927F928F929F9210
:10082000AF92BF92CF92DF92EF92FF920F931F93FE
:100830002F933F934F935F936F937F938F939F93E8
:10084000AF93BF93CF93DF93EF93FF930FB70068FE
:100850000F930091BF0403950093BF04013041F44E
:10086000CDB7DEB7E091C004F091C104C193D1933C
:1008700004E606BDF0E01F2E78940E946905000092
:100880000E94DC040F910FBFFF91EF91DF91CF9198
:10089000BF91AF919F918F917F916F915F914F9198
:1008A0003F912F911F910F91FF90EF90DF90CF908C
:1008B000BF90AF909F908F907F906F905F904F9080
:1008C0003F902F901F900F900895FA0180833197E9
:1008D000908331971082319710823197108231972F
:1008E00010823197108231971082319710823197A0
:1008F0001082319710823197108231971082319790
:10090000108231971082319710823197108231977F
:10091000108231971082319710823197108231976F
:10092000108231971082319710823197108231975F
:10093000108231976083319770833197108231979D
:10094000108231971082319710823197108231973F
:100950001082319780E88083CA01839708950895B3
:10096000089508950895089508950895089508959F
:10097000F8948091A9049091AA04A091AB04B0913D
:10098000AC040196A11DB11D8093A9049093AA0403
:10099000A093AB04B093AC0478940E94B604E8CF63
:1009A0008091A804813039F48091BF048F3F19F001
:1009B0008F5F8093BF0408958091A804813009F06F
:1009C0004CC0F8948091BF04882319F08150809323
:1009D000BF048091BF0481113FC08091A7048111A1
:1009E0003BC0E091BA04F0E0E050FF4FE081E093BB
:1009F000BE04AE2FB0E0A554BB4FAC91B0E0A05008
:100A0000BF4FEE0FEE0FEE0F8C91E80FE093AD04A9
:100A10008091AE04E81701F1F0E0EE0FFF1FEF5FE9
:100A2000F94F808191819093B9048093B8048091AB
:100A3000B1049091B204A091B304B091B4040196B2
:100A4000A11DB11D8093B1049093B204A093B3048F
:100A5000B093B4040E94D303789408958091A804BD
:100A6000813049F4F8948091A7048F3F19F08F5F8B
:100A70008093A704789408958091A804811128C0D8
:100A8000E091BA04F0E0E050FF4FE081AE2FB0E01B
:100A9000A554BB4FAC91B0E0A050BF4FEE0FEE0F8E
:100AA000EE0F8C91E80FE093AD04E093AE04F0E01C
:100AB000EE0FFF1FEF5FF94F808191819093B90492
:100AC0008093B8049093C1048093C0040C944603AF
:100AD00008950E94B3048091A804E091AF04F091BE
:100AE000B00421E030E0813001F10895F89486816E
:100AF00097810097B1F0019797838683892B89F4BA
:100B0000808583FD16C08091BA049585892B8093DA
:100B1000BA04A385B0E0A554BB4F8C919485892B72
:100B20008C930280F381E02D789481858031F1F6F9
:100B3000DCCF37832683F5CF8CEF90E008950895BE
:100B4000F8948091BF0481113DC08091A704811168
:100B500039C0E091BA04F0E0E050FF4FE081AE2FE1
:100B6000B0E0A554BB4FAC91B0E0A050BF4FEE0F2A
:100B7000EE0FEE0F8C91E80FE093AD048091AE0480
:100B8000E81701F1F0E0EE0FFF1FEF5FF94F8081F2
:100B900091819093B9048093B8048091B1049091AD
:100BA000B204A091B304B091B4040196A11DB11D8B
:100BB0008093B1049093B204A093B304B093B404AF
:100BC0000E947603789408958091A804813091F46E
:100BD000F8948091A704882361F081508093A70442
:100BE000811107C08091BF04811103C078940C94D7
:100BF000A00578940895AC01F894A091C004B09138
:100C0000C1041B96EC911B97F0E01C969C911C97DD
:100C10009095E554FB4F80819823908391110AC0F1
:100C20001D969C911D97292F20959091BA0492238F
:100C30009093BA0417965C934E93169778940C94FD
:100C4000A0051F93CF93DF93F894C091B504D09182
:100C5000B604209709F454C0182F8A819B81909381
:100C6000B6048093B50478947983688319871886CD
:100C70001F821E821E86E12FE695E695E695EB879C
:100C8000F0E0E050FE4F80818D87E12FE770EA872A
:100C9000F0E0E050FE4F80818C87CE010E94B704C7
:100CA000CE010E94AF04F894E12FF0E0EE0FFF1F99
:100CB000EF5FF94FD183C083E091AF04F091B004AE
:100CC000FB83EA831D821C82309711F0D583C48395
:100CD000D093B004C093AF048091BA049D85892B52
:100CE0008093BA04EB85F0E0E554FB4F80819C854E
:100CF000892B8083789480E0DF91CF911F910895B4
:100D0000789486E4F9CF9F92AF92BF92CF92DF9210
:100D1000EF92FF920F931F93CF93DF93F894C22F1C
:100D2000D0E0CC0FDD1FCF5FD94FE881F981EF2BE9
:100D300009F03BC0922E21E030E03983288378947B
:100D400030E020E00E946504B12CA12CD12CC12CF4
:100D5000E12CF12C870130E020E050E040E0BC01C4
:100D6000892D0E942106182F81111AC0F8948091B4
:100D7000B7048F5F8093B70478948091A804813082
:100D800011F40E94A005812FDF91CF911F910F9147
:100D9000FF90EF90DF90CF90BF90AF909F9008951D
:100DA000F894198218827894EECF789418E2EBCFF9
:100DB0000E94B4041092BF041092A7041092B704CA
:100DC0001092A8041092B1041092B2041092B304CD
:100DD0001092B4041092A9041092AA041092AB04C9
:100DE0001092AC041092BA041092BB041092BC048E
:100DF0001092BD041092AE041092AD041092B9048A
:100E00001092B8041092C1041092C0041092B00461
:100E10001092AF04E1E0F6E01192119286E0E33225
:100E2000F807D1F7E2E0F5E0CF010F9693838283D4
:100E3000FC0185E0E23FF807B9F71092F505109242
:100E4000F40582E095E09093B6048093B50420E128
:100E500041E055E070E060E088EB94E00E9483069A
:100E60000C94B504FF920F931F93CF93DF93F090F0
:100E7000BF04F11076C0F8948F3F29F4E091C004CC
:100E8000F091C1048185082F10E0000F111FF801B7
:100E9000EF5FF94FC081D181209709F45EC0EB85E7
:100EA000F0E08C858095E554FB4F90818923808309
:100EB000811108C08D85982F90958091BA0489235F
:100EC0008093BA041F821E8218868091A7048F3FE8
:100ED00019F08F5F8093A7047894F8948091A70409
:100EE000882319F081508093A704CE010E94B0049A
:100EF0008091B70481508093B704F801EF5FF94FF8
:100F000011821082EC81FD81AA81BB813097E1F4CE
:100F100015961C921E921497B093B004A093AF0440
:100F20008091B5049091B6049B838A83D093B604D4
:100F3000C093B50478940E94A0058F2DDF91CF91C6
:100F40001F910F91FF900895B383A283AA81BB8163
:100F50001596FC93EE931497E3CF78949CE3F92EC7
:100F6000ECCF8FE3F82EE9CF8F3F41F4F894E09176
:100F7000C004F091C104868578940895F894E82F10
:100F8000F0E0EE0FFF1FEF5FF94F0190F081E02DD1
:100F90008BE0309789F38EE3868780E0EDCF009772
:100FA00011F00C94FB050895CF92DF92EF92FF921F
:100FB00081110DC061110BC041110CC0211531050B
:100FC00061F484E5FF90EF90DF90CF9008956C334B
:100FD00008F04FC04C3308F04EC0283E93E039076C
:100FE00008F04BC0F901582F262F30E0ACE3B0E0F9
:100FF0000E94AD086B017C01C40ED11CE11CF11CE8
:10100000252F30E0A0E1BEE00E94AD08A7019601C7
:10101000260F371F481F591FA4E6B0E00E94BC08E6
:101020006B017C019F010E94AD086C507E4F8F4F79
:101030009F4F28EE33E040E050E00E948B08D7013C
:10104000C601820F931FA41FB51F7D010E94CF0709
:10105000E114F10411F480E0B5CF80E090E80E9443
:10106000FB0580E090E80E94FB0581E0E81AF108AA
:10107000EFCF81E5A7CF82E5A5CF83E5A3CF0E947F
:101080008A020E94D80670E060E090E080E00E9452
:10109000AD0110929B0210929A0210929D02109242
:1010A0009C0210929E0221E04EE953E070E060E065
:1010B00083EB90E00E9483060E9450020E94760219
:1010C0000E943C05FFCFAA1BBB1B51E107C0AA1F12
:1010D000BB1FA617B70710F0A61BB70B881F991FD9
:1010E0005A95A9F780959095BC01CD01089597FB7D
:1010F000072E16F4009407D077FD09D00E946308EC
:1011000007FC05D03EF4909581959F4F089570950A
:1011100061957F4F0895A1E21A2EAA1BBB1BFD010A
:101120000DC0AA1FBB1FEE1FFF1FA217B307E407C6
:10113000F50720F0A21BB30BE40BF50B661F771F1E
:10114000881F991F1A9469F76095709580959095FE
:101150009B01AC01BD01CF010895A29FB001B39FD7
:10116000C001A39F700D811D1124911DB29F700DB0
:10117000811D1124911D08950E94AD08A59F900D19
:10118000B49F900DA49F800D911D11240895F89493
:02119000FFCF8F
:101192000000010002000100030001000200010042
:1011A200040001000200010003000100020001002E
:1011B200050001000200010003000100020001001D
:1011C200040001000200010003000100020001000E
:1011D20006000100020001000300010002000100FC
:1011E20004000100020001000300010002000100EE
:1011F20005000100020001000300010002000100DD
:1012020004000100020001000300010002000100CD
:1012120007000100020001000300010002000100BA
:1012220004000100020001000300010002000100AD
:10123200050001000200010003000100020001009C
:10124200040001000200010003000100020001008D
:10125200060001000200010003000100020001007B
:10126200040001000200010003000100020001006D
:10127200050001000200010003000100020001005C
:10128200040001000200010003000100020001004D
:1012920001020408102040803031323334353637B1
:0A12A200383941424344454600003C
:00000001FF
