:100000000C9434000C9451000C9451000C94510049
:100010000C9451000C9451000C9451000C9451001C
:100020000C9451000C9451000C9451000C9451000C
:100030000C9451000C9451000C9451000C945100FC
:100040000C946D020C9451000C9451000C945100CE
:100050000C9451000C9451000C9451000C945100DC
:100060000C9451000C94510011241FBECFEFD8E026
:10007000DEBFCDBF12E0A0E0B1E0EAEDF6E102C0E4
:1000800005900D92AA32B107D9F726E0AAE2B2E0B4
:1000900001C01D92AB33B207E1F70E9407090C942F
:1000A0006B0B0C940000FFCFC1E00E94C9070197C1
:1000B00051F4C093AE0224E630E040E060E080E01E
:1000C0000E943B06F2CF1092AE02F5CF6091AA02D9
:1000D0007091AB028091AC029091AD020E946E07CC
:1000E0002AE030E040E060E080E00E943B06EECF96
:1000F00038EE832E33E0932E42E3A42EB12CCCE9CC
:10010000DFEF04E610E00E94EC078830910598F5D7
:10011000880F991FFC01E85FFD4F80819181B40138
:10012000681B790B072E000C880B990B0E94490A5B
:100130006B017C012091B3023091B4024091B50271
:100140005091B6020E94A0092B013C0120E030E54D
:1001500043E457E40E94F90A181684F480E090E51D
:10016000A3E4B7E48093B3029093B402A093B502E2
:10017000B093B60215C090E080E0D1CF20E030E52A
:1001800043E457ECC301B2010E940C0A87FD6CC026
:100190004092B3025092B4026092B5027092B602DD
:1001A00020E030E0A9016091B3027091B402809127
:1001B000B5029091B6020E94FE0A2B013C012DEC83
:1001C0003CEC4CEC5DE3C701B6010E94FE0A9B01CA
:1001D000AC01C301B2010E94A0092B013C01209196
:1001E000AF023091B0024091B1025091B202C7010A
:1001F000B6010E949F0920E030E0A9010E94FE0A9A
:100200009B01AC01C301B2010E94A009C092AF02E0
:10021000D092B002E092B102F092B2020E94110AB2
:100220009B012E5C3F4F3093AB022093AA02C50185
:10023000861B970B9093AD028093AC022536310557
:10024000C4F01093AB020093AA0285369105CCF05E
:100250001093AD020093AC022AE030E040E060E091
:1002600080E00E943B064FCF80E090E5A3E4B7EC2E
:1002700079CF2C393F4F4CF7D093AB02C093AA02F1
:10028000E4CF8C399F4F44F7D093AD02C093AC02BA
:10029000E3CF0E943C0825E049EA52E070E060E0CC
:1002A00084E590E00E94EA0423E046E353E070E036
:1002B00060E086E690E00E94EA0421E046EB54E02C
:1002C00070E060E088E790E00E94EA0424E046E302
:1002D00054E070E060E083E590E00E94EA0430E0E2
:1002E00020E045E060E080E00E943B06F8CF8830E7
:1002F000910540F4880F991FFC01E85FFD4F808154
:100300009181089590E080E00895EAEAF2E08EECB1
:100310009FEF9183808382E390E0938382830895AB
:10032000EAEAF2E082E390E0918380838EEC9FEF33
:10033000938382830895EAEAF2E080E590E0918376
:100340008083938382830895EAEAF2E080EB9FEF53
:10035000918380839383828308950091B8040395E9
:100360000093B804E091C804F091C904C191CDBFD5
:10037000D191DEBF0F910FBFFF91EF91DF91CF9130
:10038000BF91AF919F918F917F916F915F914F91AD
:100390003F912F911F910F91FF90EF90DF90CF90A1
:1003A000BF90AF909F908F907F906F905F904F9095
:1003B0003F902F901F900F9008950F921F922F92B1
:1003C0003F924F925F926F927F928F929F92AF92E5
:1003D000BF92CF92DF92EF92FF920F931F932F93D2
:1003E0003F934F935F936F937F938F939F93AF93BD
:1003F000BF93CF93DF93EF93FF930FB70F93E091EA
:10040000D004F091D104CDB7C193DEB7D193009160
:10041000BD040093BE04E091C804F091C904E093C8
:10042000D004F093D104C191CDBFD191DEBF0F9123
:100430000FBFFF91EF91DF91CF91BF91AF919F914E
:100440008F917F916F915F914F913F912F911F916C
:100450000F91FF90EF90DF90CF90BF90AF909F9063
:100460008F907F906F905F904F903F902F901F9054
:100470000F9008950091BD040093BE04E091C8045C
:10048000F091C904E093D004F093D104C191CDBFA1
:10049000D191DEBF0F910FBFFF91EF91DF91CF910F
:1004A000BF91AF919F918F917F916F915F914F918C
:1004B0003F912F911F910F91FF90EF90DF90CF9080
:1004C000BF90AF909F908F907F906F905F904F9074
:1004D0003F902F901F900F9008950F921F922F9290
:1004E0003F924F925F926F927F928F929F92AF92C4
:1004F000BF92CF92DF92EF92FF920F931F932F93B1
:100500003F934F935F936F937F938F939F93AF939B
:10051000BF93CF93DF93EF93FF930FB700680F93D1
:100520000091CF0403950093CF04013041F4CDB77F
:10053000DEB7E091D004F091D104C193D19304E6E9
:1005400006BDF0E01F2E78940E94D00300000E94A8
:1005500043030F910FBFFF91EF91DF91CF91BF91B7
:10056000AF919F918F917F916F915F914F913F914B
:100570002F911F910F91FF90EF90DF90CF90BF9040
:10058000AF909F908F907F906F905F904F903F9033
:100590002F901F900F900895FA01808331979083D8
:1005A00031971082319710823197108231971082E3
:1005B00031971082319710823197108231971082D3
:1005C00031971082319710823197108231971082C3
:1005D00031971082319710823197108231971082B3
:1005E00031971082319710823197108231971082A3
:1005F0003197108231971082319710823197108293
:1006000031976083319770833197108231971082D0
:100610003197108231971082319710823197108272
:10062000319780E88083CA018397089508950895DB
:100630000895089508950895089508950895F894E3
:100640008091B9049091BA04A091BB04B091BC040C
:100650000196A11DB11D8093B9049093BA04A09393
:10066000BB04B093BC0478940E941D03E8CF809132
:10067000B804813039F48091CF048F3F19F08F5F37
:100680008093CF0408958091B804813009F04CC064
:10069000F8948091CF04882319F081508093CF047F
:1006A0008091CF0481113FC08091B70481113BC07C
:1006B000E091CA04F0E0E050FF4FE081E093CE0407
:1006C000AE2FB0E0A553BB4FAC91B0E0A050BF4FF0
:1006D000EE0FEE0FEE0F8C91E80FE093BD048091CA
:1006E000BE04E81701F1F0E0EE0FFF1FEF5EF94FD7
:1006F000808191819093C9048093C8048091C10442
:100700009091C204A091C304B091C4040196A11DAC
:10071000B11D8093C1049093C204A093C304B0930D
:10072000C4040E943A02789408958091B8048130FC
:1007300049F4F8948091B7048F3F19F08F5F80934C
:10074000B704789408958091B804811128C0E0918D
:10075000CA04F0E0E050FF4FE081AE2FB0E0A553B7
:10076000BB4FAC91B0E0A050BF4FEE0FEE0FEE0FBD
:100770008C91E80FE093BD04E093BE04F0E0EE0F2F
:10078000FF1FEF5EF94F808191819093C9048093A0
:10079000C8049093D1048093D0040C94AD010895C3
:1007A0000E941A038091B804E091BF04F091C00444
:1007B00021E030E0813001F10895F894868197813D
:1007C0000097B1F0019797838683892B89F4808500
:1007D00083FD16C08091CA049585892B8093CA0435
:1007E000A385B0E0A553BB4F8C919485892B8C9346
:1007F0000280F381E02D789481858031F1F6DCCFA1
:1008000037832683F5CF8CEF90E008950895F89410
:100810008091CF0481113DC08091B704811139C00E
:10082000E091CA04F0E0E050FF4FE081AE2FB0E06D
:10083000A553BB4FAC91B0E0A050BF4FEE0FEE0FF1
:10084000EE0F8C91E80FE093BD048091BE04E81791
:1008500001F1F0E0EE0FFF1FEF5EF94F8081918113
:100860009093C9048093C8048091C1049091C204FC
:10087000A091C304B091C4040196A11DB11D809341
:10088000C1049093C204A093C304B093C4040E9413
:10089000DD01789408958091B804813091F4F89442
:1008A0008091B704882361F081508093B70481114F
:1008B00007C08091CF04811103C078940C94070481
:1008C00078940895AC01F894A091D004B091D1042B
:1008D0001B96EC911B97F0E01C969C911C979095B1
:1008E000E553FB4F80819823908391110AC01D9698
:1008F0009C911D97292F20959091CA049223909343
:10090000CA0417965C934E93169778940C94070438
:100910001F93CF93DF93F894C091C504D091C60480
:10092000209709F454C0182F8A819B819093C604A4
:100930008093C504789479836883198718861F8209
:100940001E821E86E12FE695E695E695EB87F0E0A0
:10095000E050FE4F80818D87E12FE770EA87F0E05D
:10096000E050FE4F80818C87CE010E941E03CE0195
:100970000E941603F894E12FF0E0EE0FFF1FEF5EE8
:10098000F94FD183C083E091BF04F091C004FB8391
:10099000EA831D821C82309711F0D583C483D093E3
:1009A000C004C093BF048091CA049D85892B8093A5
:1009B000CA04EB85F0E0E553FB4F80819C85892BD1
:1009C0008083789480E0DF91CF911F91089578948F
:1009D00086E4F9CF9F92AF92BF92CF92DF92EF92CF
:1009E000FF920F931F93CF93DF93F894C22FD0E021
:1009F000CC0FDD1FCF5ED94FE881F981EF2B09F0D5
:100A00003BC0922E21E030E039832883789430E097
:100A100020E00E94CC02B12CA12CD12CC12CE12CC5
:100A2000F12C870130E020E050E040E0BC01892D4E
:100A30000E948804182F81111AC0F8948091C7046D
:100A40008F5F8093C70478948091B804813011F44B
:100A50000E940704812FDF91CF911F910F91FF908A
:100A6000EF90DF90CF90BF90AF909F900895F89453
:100A7000198218827894EECF789418E2EBCF0E9416
:100A80001B031092CF041092B7041092C704109267
:100A9000B8041092C1041092C2041092C3041092C0
:100AA000C4041092B9041092BA041092BB041092BC
:100AB000BC041092CA041092CB041092CC04109281
:100AC000CD041092BE041092BD041092C90410927D
:100AD000C8041092D1041092D0041092C004109255
:100AE000BF04E1E1F6E01192119286E0E333F807EA
:100AF000D1F7E2E1F5E0CF010F9693838283FC0109
:100B000086E0E230F807B9F7109205061092040665
:100B100082E195E09093C6048093C50420E141E111
:100B200055E070E060E08FE193E00E94EA040C94ED
:100B30001C03FF920F931F93CF93DF93F090CF048A
:100B4000F11076C0F8948F3F29F4E091D004F09131
:100B5000D1048185082F10E0000F111FF801EF5E0E
:100B6000F94FC081D181209709F45EC0EB85F0E098
:100B70008C858095E553FB4F90818923808381117B
:100B800008C08D85982F90958091CA048923809301
:100B9000CA041F821E8218868091B7048F3F19F005
:100BA0008F5F8093B7047894F8948091B70488237A
:100BB00019F081508093B704CE010E9417038091F1
:100BC000C70481508093C704F801EF5EF94F11828A
:100BD0001082EC81FD81AA81BB813097E1F41596EA
:100BE0001C921E921497B093C004A093BF048091EE
:100BF000C5049091C6049B838A83D093C604C09396
:100C0000C50478940E9407048F2DDF91CF911F9126
:100C10000F91FF900895B383A283AA81BB8115969B
:100C2000FC93EE931497E3CF78949CE3F92EECCFEA
:100C30008FE3F82EE9CF8F3F41F4F894E091D00490
:100C4000F091D104868578940895F894E82FF0E027
:100C5000EE0FFF1FEF5EF94F0190F081E02D8BE06A
:100C6000309789F38EE3868780E0EDCF009711F00F
:100C70000C9462040895CF92DF92EF92FF9281115B
:100C80000DC061110BC041110CC02115310561F47B
:100C900084E5FF90EF90DF90CF9008956C3308F0DB
:100CA0004FC04C3308F04EC0283E93E0390708F09F
:100CB0004BC0F901582F262F30E0ACE3B0E00E9482
:100CC00085096B017C01C40ED11CE11CF11C252F90
:100CD00030E0A0E1BEE00E948509A7019601260F41
:100CE000371F481F591FA4E6B0E00E9494096B010A
:100CF0007C019F010E9485096C507E4F8F4F9F4F52
:100D000028EE33E040E050E00E946309D701C601BD
:100D1000820F931FA41FB51F7D010E943606E114A8
:100D2000F10411F480E0B5CF80E090E80E94620405
:100D300080E090E80E94620481E0E81AF108EFCFB9
:100D400081E5A7CF82E5A5CF83E5A3CF80E480939B
:100D50007C0086E880937A000895F89480648093FC
:100D60007C0080917A00806480937A0080917A0080
:100D700084FFFCCF80917A00806180937A00789420
:100D8000809178009091790093700895811105C049
:100D90007093890060938800089570938B0060932E
:100DA0008A0008958AB1806F8AB98BB18F708BB930
:100DB00081EA8093800083E0809381001092850017
:100DC0001092840010928900A8E8B0E01C92109262
:100DD0008B00EAE8F0E0108284B1866084B9119655
:100DE0001C921E9211821082089577FF02C070E05B
:100DF00060E06536710514F064E670E09B01220F37
:100E0000331F75956795620F731F811109C0709329
:100E10008B0060938A0070933406609333060895C4
:100E2000709389006093880070933806609337064A
:100E30000895CF93C62F262F30E081112BC08091CB
:100E40003506909136068217930759F070E060E0FE
:100E500080E00E94F5068FE99FE00197F1F700C05E
:100E60000000C1110EC05E985F9A10923606109273
:100E700035068FE39CE90197F1F700C00000CF91A0
:100E800008955E9A5F9881E090E090933606809393
:100E90003506EFCF8091390690913A068217930775
:100EA00059F070E060E081E00E94F5068FE99FE074
:100EB0000197F1F700C00000C11107C05C9A5D986E
:100EC00010923A0610923906D4CF5C985D9A81E070
:100ED00090E090933A0680933906CBCF0F931F93FF
:100EE000CF93DF93EC018B0197FF1CC061E081E0A1
:100EF0000E941907D195C195D10917FF18C061E06B
:100F000080E00E941907119501951109B80180E050
:100F10000E94F506BE0181E0DF91CF911F910F91F4
:100F20000C94F50660E081E00E941907E6CF60E0CE
:100F300080E00E941907EACF8093C4001092C50098
:100F40001092C00088E18093C10086E08093C200C7
:100F500008959091C00095FFFCCF8093C60008953E
:100F6000CF938091C00087FFFCCFC091C6008C2F2B
:100F70000E94A9078C2FCF910895CF93DF93EC01A6
:100F80008991811103C0DF91CF9108950E94A90733
:100F9000F7CF80E00E94AD0621E030E08436910575
:100FA00010F030E020E0C901089584E00E94AD0611
:100FB0002BEFAC012403C001259F900D1124855017
:100FC0009C4E63E370E00E944F09CB0165367105CA
:100FD00014F084E690E00895CF93DF93C0E0D1E071
:100FE000CC0F8D2F0E94AD068C3291400CF4C16065
:100FF000DF5FD430A9F78C2F90E0DF91CF91089577
:1010000083B182958F7091E08927817090E0089577
:1010100083B186958695869591E08927817090E0C9
:1010200008955B9A2FEF85EA9EE021508040904022
:10103000E1F700C000005B982FEF85EA9EE02150A9
:1010400080409040E1F700C00000089585E00E94D4
:10105000AD06843F914010F4289A08952898089589
:1010600089B182FB882780F991E0892708950E9441
:1010700030088823E1F30895F89485E085BD81E088
:1010800080936E0084E686BD7894089587E60E947A
:101090009C070C94A6060E9446080E94D206539A0A
:1010A0005B98209A52985A9A2498239885B188611F
:1010B00085B960E080E00E94190760E081E00E944D
:1010C000190770E060E090E080E00C946E074F92AA
:1010D0005F926F927F928F929F92AF92BF92CF92C8
:1010E000DF92EF92FF920F931F93CF93DF93CDB7D1
:1010F000DEB7DE015396ED91FD918D015AE0652E2C
:10110000712C8081853281F45F0182E0A80EB11CD0
:101110008181843609F450C090F4833661F4F8017B
:1011200080810E5F1F4F07C0882309F45DC05F01F7
:101130009FEFA91AB90A0E94A907F501E2CF8337E8
:1011400071F130E1832E912CE12C40E1F42E8837AF
:1011500091F7F801C080D1800E5F1F4F843659F49B
:10116000D7FE06C0D194C194D1088DE20E94A90790
:10117000CE14DF0448F1C601B7010E943B092C01DF
:10118000685E7D4FFB0180810E94A9076201C70153
:10119000B4010E943B097B01672B69F7CECFF801B0
:1011A000E080F1800E5F1F4FF70181917F0188235E
:1011B00021F20E94A907F8CF9AE0892E912C20E114
:1011C000E22E27E2F22EC5CFC701B3010E943B09F0
:1011D0007B016230710560F6C6010E943B09FB018C
:1011E000E85EFD4F8081A7CF90E080E0DF91CF9156
:1011F0001F910F91FF90EF90DF90CF90BF90AF9035
:101200009F908F907F906F905F904F9008950E9475
:101210004B080E943F0570E060E090E080E00E9493
:101220006E071092AB021092AA021092AD021092B9
:10123000AC021092AE021092AF021092B002109265
:10124000B1021092B2021092B3021092B402109244
:10125000B5021092B60222E046EB53E070E060E087
:1012600089E491E00E94EA040E9411080E94370874
:101270000E94A303FFCFAA1BBB1B51E107C0AA1FFB
:10128000BB1FA617B70710F0A61BB70B881F991F27
:101290005A95A9F780959095BC01CD01089597FBCB
:1012A000072E16F4009407D077FD09D00E943B0961
:1012B00007FC05D03EF4909581959F4F0895709559
:1012C00061957F4F0895A1E21A2EAA1BBB1BFD0159
:1012D0000DC0AA1FBB1FEE1FFF1FA217B307E40715
:1012E000F50720F0A21BB30BE40BF50B661F771F6D
:1012F000881F991F1A9469F760957095809590954D
:101300009B01AC01BD01CF010895A29FB001B39F25
:10131000C001A39F700D811D1124911DB29F700DFE
:10132000811D1124911D08950E948509A59F900D8E
:10133000B49F900DA49F800D911D112408955058C5
:10134000BB27AA270E94B7090C94BF0A0E94B10AC2
:1013500038F00E94B80A20F039F49F3F19F426F4BF
:101360000C94AE0A0EF4E095E7FB0C94A80AE92F62
:101370000E94D00A58F3BA176207730784079507CB
:1013800020F079F4A6F50C94F20A0EF4E0950B2EF9
:10139000BA2FA02D0B01B90190010C01CA01A001C7
:1013A0001124FF27591B99F0593F50F4503E68F122
:1013B0001A16F040A22F232F342F4427585FF3CF63
:1013C000469537952795A795F0405395C9F77EF434
:1013D0001F16BA0B620B730B840BBAF09150A1F07D
:1013E000FF0FBB1F661F771F881FC2F70EC0BA0F03
:1013F000621F731F841F48F4879577956795B7958B
:10140000F7959E3F08F0B0CF9395880F08F0992785
:10141000EE0F9795879508950E94840A08F481E05D
:1014200008950E94180A6894B1110C94F30A089563
:101430000E94D80A88F09F5798F0B92F9927B75182
:10144000B0F0E1F0660F771F881F991F1AF0BA9568
:10145000C9F714C0B13091F00E94F20AB1E00895CA
:101460000C94F20A672F782F8827B85F39F0B93FBC
:10147000CCF3869577956795B395D9F73EF490951B
:101480008095709561957F4F8F4F9F4F0895E89499
:1014900009C097FB3EF490958095709561957F4FBC
:1014A0008F4F9F4F9923A9F0F92F96E9BB2793956A
:1014B000F695879577956795B795F111F8CFFAF47A
:1014C000BB0F11F460FF1BC06F5F7F4F8F4F9F4FAB
:1014D00016C0882311F096E911C0772321F09EE809
:1014E000872F762F05C0662371F096E8862F70E06F
:1014F00060E02AF09A95660F771F881FDAF7880F49
:101500009695879597F90895990F0008550FAA0B9E
:10151000E0E8FEEF16161706E807F907C0F0121606
:101520001306E407F50798F0621B730B840B950B09
:1015300039F40A2661F0232B242B252B21F408955E
:101540000A2609F4A140A6958FEF811D811D0895FB
:1015500097F99F6780E870E060E008959FEF80EC66
:10156000089500240A941616170618060906089509
:1015700000240A9412161306140605060895092E6F
:101580000394000C11F4882352F0BB0F40F4BF2BDE
:1015900011F460FF04C06F5F7F4F8F4F9F4F08951E
:1015A00057FD9058440F551F59F05F3F71F0479514
:1015B000880F97FB991F61F09F3F79F087950895F9
:1015C000121613061406551FF2CF4695F1DF08C018
:1015D000161617061806991FF1CF86957105610535
:1015E00008940895E894BB2766277727CB0197F9DD
:1015F00008950E94840A08F48FEF08950E94110B49
:101600000C94BF0A0E94B10A38F00E94B80A20F078
:10161000952311F00C94A80A0C94AE0A11240C9492
:10162000F30A0E94D00A70F3959FC1F3950F50E022
:10163000551F629FF001729FBB27F00DB11D639F84
:10164000AA27F00DB11DAA1F649F6627B00DA11D2A
:10165000661F829F2227B00DA11D621F739FB00DD0
:10166000A11D621F839FA00D611D221F749F332740
:10167000A00D611D231F849F600D211D822F762FD9
:101680006A2F11249F5750409AF0F1F088234AF0B6
:10169000EE0FFF1FBB1F661F771F881F9150504022
:1016A000A9F79E3F510580F00C94A80A0C94F30A08
:1016B0005F3FE4F3983ED4F3869577956795B795A9
:1016C000F795E7959F5FC1F7FE2B880F911D9695C3
:0A16D000879597F90895F894FFCF6D
:1016DA0000000100020001000300010002000100F5
:1016EA0004000100020001000300010002000100E1
:1016FA0005000100020001000300010002000100D0
:10170A0004000100020001000300010002000100C0
:10171A0006000100020001000300010002000100AE
:10172A0004000100020001000300010002000100A0
:10173A00050001000200010003000100020001008F
:10174A000400010002000100030001000200010080
:10175A00070001000200010003000100020001006D
:10176A000400010002000100030001000200010060
:10177A00050001000200010003000100020001004F
:10178A000400010002000100030001000200010040
:10179A00060001000200010003000100020001002E
:1017AA000400010002000100030001000200010020
:1017BA00050001000200010003000100020001000F
:1017CA000400010002000100030001000200010000
:1017DA000102040810204080D007B80BE803DC059A
:1017EA0000000000F401E803303132333435363773
:0A17FA0038394142434445460000DF
:00000001FF
