:100000000C9434000C9451000C9451000C94510049
:100010000C9451000C9451000C9451000C9451001C
:100020000C9451000C9451000C9451000C9451000C
:100030000C9451000C9451000C9451000C945100FC
:100040000C9439020C9451000C9451000C94510002
:100050000C9451000C9451000C9451000C945100DC
:100060000C9451000C94510011241FBECFEFD8E026
:10007000DEBFCDBF12E0A0E0B1E0E2E7F6E102C0F2
:1000800005900D92A035B107D9F726E0A0E5B2E0C2
:1000900001C01D92A136B207E1F70E94D3080C946B
:1000A000370B0C940000FFCFC1E00E949507019729
:1000B00051F4C093D40224E630E040E060E080E0F8
:1000C0000E940706F2CF1092D402F5CF6091D002C1
:1000D0007091D1028091D2029091D3020E943A078E
:1000E00025E030E040E060E080E00E940706EECFCF
:1000F0000E94080825E04FEC52E070E060E084E5E3
:1001000090E00E94B60423E04CE553E070E060E02C
:1001100086E690E00E94B60421E04CED54E070E0E9
:1001200060E083EB90E00E94B60424E04CE554E0EC
:1001300070E060E083E590E00E94B60430E020E0EB
:1001400045E060E080E00E940706F8CF0197873025
:10015000910530F4885F9D4FFC01808190E0089507
:1001600090E080E0089580E2E82E82E0F82E02E33D
:1001700010E0C8E3D2E08091D402813081F4109283
:10018000D1021092D0021092D3021092D20228EE25
:1001900033E040E060E080E00E940706ECCF0E9480
:1001A000B8070E94A6005C01BF928F93FF92EF9266
:1001B0000E943308289AB8016A197B09072E000C9F
:1001C000880B990B0E94150A4B015C012091D90202
:1001D0003091DA024091DB025091DC020E946C09FE
:1001E0002B013C010F900F900F900F9020E030E01A
:1001F00048EC52E40E94C50A18166CF480E090E0C6
:10020000A8ECB2E48093D9029093DA02A093DB02C7
:10021000B093DC0212C020E030E048EC52ECC301A5
:10022000B2010E94D80987FD5FC04092D902509266
:10023000DA026092DB027092DC0220E030E0A90179
:100240006091D9027091DA028091DB029091DC0218
:100250000E94CA0AA50194010E946C092B013C016D
:100260002091D5023091D6024091D7025091D80208
:10027000C501B4010E946B0920E030E0A9010E9491
:10028000CA0A9B01AC01C301B2010E946C098092B1
:10029000D5029092D602A092D702B092D8020E94C4
:1002A000DD099801261B370B3093D1022093D00231
:1002B0006E5C7F4F7093D3026093D2027F936F93F3
:1002C0003F932F93DF93CF930E9433082AE030E0CF
:1002D00040E060E080E00E9407060F900F900F90D2
:1002E0000F900F900F9047CF80E090E0A8ECB2EC19
:1002F00089CF0091DE0403950093DE04E091EE04C3
:10030000F091EF04C191CDBFD191DEBF0F910FBF2E
:10031000FF91EF91DF91CF91BF91AF919F918F911D
:100320007F916F915F914F913F912F911F910F910D
:10033000FF90EF90DF90CF90BF90AF909F908F9005
:100340007F906F905F904F903F902F901F900F90F5
:1003500008950F921F922F923F924F925F926F9249
:100360007F928F929F92AF92BF92CF92DF92EF9245
:10037000FF920F931F932F933F934F935F936F932E
:100380007F938F939F93AF93BF93CF93DF93EF931D
:10039000FF930FB70F93E091F604F091F704CDB7F8
:1003A000C193DEB7D1930091E3040093E404E0919C
:1003B000EE04F091EF04E093F604F093F704C1919A
:1003C000CDBFD191DEBF0F910FBFFF91EF91DF91B4
:1003D000CF91BF91AF919F918F917F916F915F91DD
:1003E0004F913F912F911F910F91FF90EF90DF90D0
:1003F000CF90BF90AF909F908F907F906F905F90C5
:100400004F903F902F901F900F9008950091E3041C
:100410000093E404E091EE04F091EF04E093F6041D
:10042000F093F704C191CDBFD191DEBF0F910FBF03
:10043000FF91EF91DF91CF91BF91AF919F918F91FC
:100440007F916F915F914F913F912F911F910F91EC
:10045000FF90EF90DF90CF90BF90AF909F908F90E4
:100460007F906F905F904F903F902F901F900F90D4
:1004700008950F921F922F923F924F925F926F9228
:100480007F928F929F92AF92BF92CF92DF92EF9224
:10049000FF920F931F932F933F934F935F936F930D
:1004A0007F938F939F93AF93BF93CF93DF93EF93FC
:1004B000FF930FB700680F930091F5040395009325
:1004C000F504013041F4CDB7DEB7E091F604F091C8
:1004D000F704C193D19304E606BDF0E01F2E789493
:1004E0000E949C0300000E940F030F910FBFFF9119
:1004F000EF91DF91CF91BF91AF919F918F917F91BC
:100500006F915F914F913F912F911F910F91FF90AC
:10051000EF90DF90CF90BF90AF909F908F907F90A3
:100520006F905F904F903F902F901F900F90089585
:10053000FA0180833197908331971082319710822E
:100540003197108231971082319710823197108243
:100550003197108231971082319710823197108233
:100560003197108231971082319710823197108223
:100570003197108231971082319710823197108213
:100580003197108231971082319710823197108203
:100590003197108231971082319760833197708341
:1005A00031971082319710823197108231971082E3
:1005B0003197108231971082319780E88083CA0189
:1005C00083970895089508950895089508950895C6
:1005D000089508950895F8948091DF049091E004BF
:1005E000A091E104B091E2040196A11DB11D809398
:1005F000DF049093E004A093E104B093E2047894C4
:100600000E94E902E8CF8091DE04813039F48091C4
:10061000F5048F3F19F08F5F8093F5040895809162
:10062000DE04813009F04CC0F8948091F5048823F1
:1006300019F081508093F5048091F50481113FC039
:100640008091DD0481113BC0E091F004F0E0E050C6
:10065000FF4FE081E093F404AE2FB0E0AF50BB4F0A
:10066000AC91B0E0A050BF4FEE0FEE0FEE0F8C91AB
:10067000E80FE093E3048091E404E81701F1F0E06F
:10068000EE0FFF1FE95CF94F808191819093EF0499
:100690008093EE048091E7049091E804A091E9042E
:1006A000B091EA040196A11DB11D8093E7049093D7
:1006B000E804A093E904B093EA040E940602789447
:1006C00008958091DE04813049F4F8948091DD042E
:1006D0008F3F19F08F5F8093DD04789408958091A7
:1006E000DE04811128C0E091F004F0E0E050FF4FFB
:1006F000E081AE2FB0E0AF50BB4FAC91B0E0A05066
:10070000BF4FEE0FEE0FEE0F8C91E80FE093E30476
:10071000E093E404F0E0EE0FFF1FE95CF94F808105
:1007200091819093EF048093EE049093F70480936B
:10073000F6040C94790108950E94E6028091DE048B
:10074000E091E504F091E60421E030E0813001F130
:100750000895F894868197810097B1F00197978367
:100760008683892B89F4808583FD16C08091F004EF
:100770009585892B8093F004A385B0E0AF50BB4FE3
:100780008C919485892B8C930280F381E02D789451
:1007900081858031F1F6DCCF37832683F5CF8CEF6E
:1007A00090E008950895F8948091F50481113DC07A
:1007B0008091DD04811139C0E091F004F0E0E05057
:1007C000FF4FE081AE2FB0E0AF50BB4FAC91B0E037
:1007D000A050BF4FEE0FEE0FEE0F8C91E80FE0939D
:1007E000E3048091E404E81701F1F0E0EE0FFF1F4D
:1007F000E95CF94F808191819093EF048093EE043E
:100800008091E7049091E804A091E904B091EA0492
:100810000196A11DB11D8093E7049093E804A09375
:10082000E904B093EA040E94A901789408958091A4
:10083000DE04813091F4F8948091DD04882361F026
:1008400081508093DD04811107C08091F5048111EE
:1008500003C078940C94D30378940895AC01F89471
:10086000A091F604B091F7041B96EC911B97F0E071
:100870001C969C911C979095EF50FB4F808198237C
:10088000908391110AC01D969C911D97292F209548
:100890009091F00492239093F00417965C934E93FA
:1008A000169778940C94D3031F93CF93DF93F89407
:1008B000C091EB04D091EC04209709F454C0182F98
:1008C0008A819B819093EC048093EB0478947983E4
:1008D0006883198718861F821E821E86E12FE6957F
:1008E000E695E695EB87F0E0E050FE4F80818D873E
:1008F000E12FE770EA87F0E0E050FE4F80818C87BF
:10090000CE010E94EA02CE010E94E202F894E12F99
:10091000F0E0EE0FFF1FE95CF94FD183C083E09157
:10092000E504F091E604FB83EA831D821C82309784
:1009300011F0D583C483D093E604C093E50480917D
:10094000F0049D85892B8093F004EB85F0E0EF5057
:10095000FB4F80819C85892B8083789480E0DF9198
:10096000CF911F910895789486E4F9CF9F92AF922A
:10097000BF92CF92DF92EF92FF920F931F93CF938C
:10098000DF93F894C22FD0E0CC0FDD1FC95CD94FA4
:10099000E881F981EF2B09F03BC0922E21E030E095
:1009A00039832883789430E020E00E949802B12CAB
:1009B000A12CD12CC12CE12CF12C870130E020E0BE
:1009C00050E040E0BC01892D0E945404182F811191
:1009D0001AC0F8948091ED048F5F8093ED047894B1
:1009E0008091DE04813011F40E94D303812FDF91C6
:1009F000CF911F910F91FF90EF90DF90CF90BF901C
:100A0000AF909F900895F894198218827894EECF51
:100A1000789418E2EBCF0E94E7021092F50410924E
:100A2000DD041092ED041092DE041092E70410929F
:100A3000E8041092E9041092EA041092DF04109284
:100A4000E0041092E1041092E2041092F00410927B
:100A5000F1041092F2041092F3041092E404109244
:100A6000E3041092EF041092EE041092F704109237
:100A7000F6041092E6041092E504E7E3F6E0119222
:100A8000119286E0E935F807D1F7E8E3F5E0CF0108
:100A90000F9693838283FC0186E0E832F807B9F76A
:100AA00010922B0610922A0688E395E09093EC04AE
:100AB0008093EB0420E147E355E070E060E08BEECB
:100AC00092E00E94B6040C94E802FF920F931F93E9
:100AD000CF93DF93F090F504F11076C0F8948F3F38
:100AE00029F4E091F604F091F7048185082F10E0D5
:100AF000000F111FF801E95CF94FC081D1812097E7
:100B000009F45EC0EB85F0E08C858095EF50FB4FDB
:100B1000908189238083811108C08D85982F9095BD
:100B20008091F00489238093F0041F821E8218862E
:100B30008091DD048F3F19F08F5F8093DD047894FE
:100B4000F8948091DD04882319F081508093DD04AE
:100B5000CE010E94E3028091ED0481508093ED0468
:100B6000F801E95CF94F11821082EC81FD81AA81C4
:100B7000BB813097E1F415961C921E921497B093A6
:100B8000E604A093E5048091EB049091EC049B8330
:100B90008A83D093EC04C093EB0478940E94D3032F
:100BA0008F2DDF91CF911F910F91FF900895B38307
:100BB000A283AA81BB811596FC93EE931497E3CF91
:100BC00078949CE3F92EECCF8FE3F82EE9CF8F3F9A
:100BD00041F4F894E091F604F091F7048685789456
:100BE0000895F894E82FF0E0EE0FFF1FE95CF94F4D
:100BF0000190F081E02D8BE0309789F38EE38687BA
:100C000080E0EDCF009711F00C942E040895CF9260
:100C1000DF92EF92FF9281110DC061110BC0411163
:100C20000CC02115310561F484E5FF90EF90DF9051
:100C3000CF9008956C3308F04FC04C3308F04EC08D
:100C4000283E93E0390708F04BC0F901582F262FB2
:100C500030E0ACE3B0E00E9451096B017C01C40EAE
:100C6000D11CE11CF11C252F30E0A0E1BEE00E9468
:100C70005109A7019601260F371F481F591FA4E6E7
:100C8000B0E00E9460096B017C019F010E94510944
:100C90006C507E4F8F4F9F4F28EE33E040E050E086
:100CA0000E942F09D701C601820F931FA41FB51FF1
:100CB0007D010E940206E114F10411F480E0B5CF39
:100CC00080E090E80E942E0480E090E80E942E04CC
:100CD00081E0E81AF108EFCF81E5A7CF82E5A5CF43
:100CE00083E5A3CF80E480937C0086E880937A003C
:100CF0000895F894806480937C0080917A008064E9
:100D000080937A0080917A0084FFFCCF80917A00F2
:100D1000806180937A007894809178009091790036
:100D200093700895811105C07093890060938800C5
:100D3000089570938B0060938A0008958AB1806F44
:100D40008AB98BB18F708BB981EA8093800083E080
:100D50008093810010928500109284001092890087
:100D6000A8E8B0E01C9210928B00EAE8F0E0108254
:100D700084B1866084B911961C921E9211821082F1
:100D8000089577FF02C070E060E06536710514F0E9
:100D900064E670E09B01220F331F75956795620F23
:100DA000731F811109C070938B0060938A00709348
:100DB0005A066093590608957093890060938800DD
:100DC00070935E0660935D060895CF93C62F262F1D
:100DD00030E081112BC080915B0690915C068217F8
:100DE000930759F070E060E080E00E94C1068FE94F
:100DF0009FE00197F1F700C00000C1110EC05E989E
:100E00005F9A10925C0610925B068FE39CE9019753
:100E1000F1F700C00000CF9108955E9A5F9881E0DD
:100E200090E090935C0680935B06EFCF80915F0625
:100E3000909160068217930759F070E060E081E0BE
:100E40000E94C1068FE99FE00197F1F700C0000002
:100E5000C11107C05C9A5D981092600610925F06FF
:100E6000D4CF5C985D9A81E090E090936006809387
:100E70005F06CBCF0F931F93CF93DF93EC018B01D2
:100E800097FF1CC061E081E00E94E506D195C19505
:100E9000D10917FF18C061E080E00E94E5061195B6
:100EA00001951109B80180E00E94C106BE0181E0F0
:100EB000DF91CF911F910F910C94C10660E081E00A
:100EC0000E94E506E6CF60E080E00E94E506EACFFA
:100ED0008093C4001092C5001092C00088E18093F6
:100EE000C10086E08093C20008959091C00095FFF4
:100EF000FCCF8093C6000895CF938091C00087FFF8
:100F0000FCCFC091C6008C2F0E9475078C2FCF910B
:100F10000895CF93DF93EC018991811103C0DF9194
:100F2000CF9108950E947507F7CF80E00E9479065F
:100F300021E030E08436910510F030E020E0C90176
:100F4000089584E00E9479062BEFAC012403C001D0
:100F5000259F900D112485509C4E63E370E00E9404
:100F60001B09CB016536710514F084E690E0089505
:100F7000CF93DF93C0E0D1E0CC0F8D2F0E94790694
:100F80008C3291400CF4C160DF5FD430A9F78C2F14
:100F900090E0DF91CF91089583B182958F7091E0B9
:100FA0008927817090E0089583B18695869586950E
:100FB00091E08927817090E008955B9A2FEF85EA90
:100FC0009EE0215080409040E1F700C000005B9817
:100FD0002FEF85EA9EE0215080409040E1F700C06D
:100FE0000000089585E00E947906843F914010F446
:100FF000289A08952898089589B182FB882780F956
:1010000091E0892708950E94FC078823E1F3089561
:10101000F89485E085BD81E080936E0084E686BD0E
:101020007894089587E60E9468070C9472060E94DF
:1010300012080E949E06539A5B98209A52985A9AD8
:101040002498239885B1886185B960E080E00E948A
:10105000E50660E081E00E94E50670E060E090E077
:1010600080E00C943A074F925F926F927F928F923A
:101070009F92AF92BF92CF92DF92EF92FF920F9327
:101080001F93CF93DF93CDB7DEB7DE015396ED917B
:10109000FD918D015AE0652E712C8081853281F49D
:1010A0005F0182E0A80EB11C8181843609F450C032
:1010B00090F4833661F4F80180810E5F1F4F07C002
:1010C000882309F45DC05F019FEFA91AB90A0E9445
:1010D0007507F501E2CF833771F130E1832E912C52
:1010E000E12C40E1F42E883791F7F801C080D180DF
:1010F0000E5F1F4F843659F4D7FE06C0D194C194B9
:10110000D1088DE20E947507CE14DF0448F1C601B4
:10111000B7010E9407092C01615F7D4FFB018081AF
:101120000E9475076201C701B4010E9407097B0193
:10113000672B69F7CECFF801E080F1800E5F1F4F7B
:10114000F70181917F01882321F20E947507F8CF72
:101150009AE0892E912C20E1E22E27E2F22EC5CFD3
:10116000C701B3010E9407097B016230710560F677
:10117000C6010E940709FB01E15FFD4F8081A7CFF7
:1011800090E080E0DF91CF911F910F91FF90EF9061
:10119000DF90CF90BF90AF909F908F907F906F9097
:1011A0005F904F9008950E9417080E940B0570E011
:1011B00060E090E080E00E943A071092D102109225
:1011C000D0021092D3021092D2021092D402109246
:1011D000D5021092D6021092D7021092D802109225
:1011E000D9021092DA021092DB021092DC0222E0A5
:1011F0004CED53E070E060E088E790E00E94B604B8
:101200000E94DD070E9403080E946F03FFCFAA1B04
:10121000BB1B51E107C0AA1FBB1FA617B70710F0E1
:10122000A61BB70B881F991F5A95A9F78095909513
:10123000BC01CD01089597FB072E16F4009407D04A
:1012400077FD09D00E94070907FC05D03EF4909570
:1012500081959F4F0895709561957F4F0895A1E204
:101260001A2EAA1BBB1BFD010DC0AA1FBB1FEE1F20
:10127000FF1FA217B307E407F50720F0A21BB30B6B
:10128000E40BF50B661F771F881F991F1A9469F7E7
:1012900060957095809590959B01AC01BD01CF0143
:1012A0000895A29FB001B39FC001A39F700D811D3F
:1012B0001124911DB29F700D811D1124911D08955F
:1012C0000E945109A59F900DB49F900DA49F800D81
:1012D000911D112408955058BB27AA270E94830905
:1012E0000C948B0A0E947D0A38F00E94840A20F038
:1012F00039F49F3F19F426F40C947A0A0EF4E09521
:10130000E7FB0C94740AE92F0E949C0A58F3BA1761
:10131000620773078407950720F079F4A6F50C940B
:10132000BE0A0EF4E0950B2EBA2FA02D0B01B901C9
:1013300090010C01CA01A0011124FF27591B99F04B
:10134000593F50F4503E68F11A16F040A22F232F57
:10135000342F4427585FF3CF469537952795A795A7
:10136000F0405395C9F77EF41F16BA0B620B730B4E
:10137000840BBAF09150A1F0FF0FBB1F661F771FBF
:10138000881FC2F70EC0BA0F621F731F841F48F474
:10139000879577956795B795F7959E3F08F0B0CFFD
:1013A0009395880F08F09927EE0F979587950895E4
:1013B0000E94500A08F481E008950E94E4096894AC
:1013C000B1110C94BF0A08950E94A40A88F09F5797
:1013D00098F0B92F9927B751B0F0E1F0660F771F59
:1013E000881F991F1AF0BA95C9F714C0B13091F04F
:1013F0000E94BE0AB1E008950C94BE0A672F782FB0
:101400008827B85F39F0B93FCCF386957795679513
:10141000B395D9F73EF490958095709561957F4F7F
:101420008F4F9F4F0895E89409C097FB3EF4909525
:101430008095709561957F4F8F4F9F4F9923A9F0AD
:10144000F92F96E9BB279395F6958795779567953C
:10145000B795F111F8CFFAF4BB0F11F460FF1BC080
:101460006F5F7F4F8F4F9F4F16C0882311F096E913
:1014700011C0772321F09EE8872F762F05C06623C1
:1014800071F096E8862F70E060E02AF09A95660F7A
:10149000771F881FDAF7880F9695879597F9089533
:1014A000990F0008550FAA0BE0E8FEEF1616170675
:1014B000E807F907C0F012161306E407F50798F0DD
:1014C000621B730B840B950B39F40A2661F0232BF6
:1014D000242B252B21F408950A2609F4A140A69572
:1014E0008FEF811D811D089597F99F6780E870E057
:1014F00060E008959FEF80EC089500240A9416168A
:10150000170618060906089500240A9412161306F1
:10151000140605060895092E0394000C11F488237F
:1015200052F0BB0F40F4BF2B11F460FF04C06F5F9B
:101530007F4F8F4F9F4F089557FD9058440F551F71
:1015400059F05F3F71F04795880F97FB991F61F045
:101550009F3F79F087950895121613061406551FBC
:10156000F2CF4695F1DF08C0161617061806991F28
:10157000F1CF86957105610508940895E894BB271D
:1015800066277727CB0197F908950E94500A08F43F
:101590008FEF08950E94DD0A0C948B0A0E947D0A49
:1015A00038F00E94840A20F0952311F00C94740AFC
:1015B0000C947A0A11240C94BF0A0E949C0A70F3BE
:1015C000959FC1F3950F50E0551F629FF001729FE8
:1015D000BB27F00DB11D639FAA27F00DB11DAA1FF7
:1015E000649F6627B00DA11D661F829F2227B00D44
:1015F000A11D621F739FB00DA11D621F839FA00DCF
:10160000611D221F749F3327A00D611D231F849F1E
:10161000600D211D822F762F6A2F11249F57504075
:101620009AF0F1F088234AF0EE0FFF1FBB1F661FF0
:10163000771F881F91505040A9F79E3F510580F0B9
:101640000C94740A0C94BF0A5F3FE4F3983ED4F301
:10165000869577956795B795F795E7959F5FC1F75D
:10166000FE2B880F911D9695879597F90895F8940C
:02167000FFCFAA
:10167200000001000200010003000100020001005D
:101682000400010002000100030001000200010049
:101692000500010002000100030001000200010038
:1016A2000400010002000100030001000200010029
:1016B2000600010002000100030001000200010017
:1016C2000400010002000100030001000200010009
:1016D20005000100020001000300010002000100F8
:1016E20004000100020001000300010002000100E9
:1016F20007000100020001000300010002000100D6
:1017020004000100020001000300010002000100C8
:1017120005000100020001000300010002000100B7
:1017220004000100020001000300010002000100A8
:101732000600010002000100030001000200010096
:101742000400010002000100030001000200010088
:101752000500010002000100030001000200010077
:101762000400010002000100030001000200010068
:10177200010204081020408019324B64007D96302B
:1017820031323334353637383941424344454600E5
:101792006C696E652073656E736F72207265616429
:1017A200696E673A202564007273706565643A2039
:1017B20025642C206C73706565643A2025640000F2
:00000001FF
